:1018320000A8C0003F065B4F666D7D077F6F000802
:101842004001414876000000BF86DBCFE6EDFD8710
:10185200FFEF777C395E79713D76301E753815372A
:101862003F736B336D313E3E2A76665BB7F9DEED30
:03187200B0B1B75B
:100E2300052EAA550000000533AA4400000005382A
:100E3300AA330000000528CC550100000522CC553B
:0F0E4300020000013EBB013D0A012701012D0005
:1018B500052DE52DC394054035E4F52D7527011259
:1018C5001B6CE92406F9E43AFA120887C39414E577
:1018D500F0940050197D967C007FB87E0B12157E22
:0F18E500E4F527FB7A0079287D05FC121A2622EC
:101A4E00E4FF1217A8BF01187D147C007F087E07E3
:101A5E0012157E7B007A00792E7D057C00121A26E7
:011A6E002255
:10171200E4FF1218758F4C7F011218758F4DE54C3E
:10172200B4011B7D147C007F087E0712157E75278D
:10173200037B007A0079337D057C00121A26E54D81
:10174200B4011B7D147C007F087E0712157E75276D
:0E175200047B007A0079387D057C00121A268F
:011760002266
:1012E000E5277018754F2F75502C75512F853D527D
:1012F000853D537B2F7D22AF3D121A8FE527B40128
:1013000018754F2075502C75512A755222853D5302
:101310007B297D227F34121A8FE527B40218854776
:101320004F854850854951854A52854B53AB46AD50
:1013300045AF44121A8FE527B40318853D4F853D0C
:101340005075512675522B853D537B347D2C7F2B58
:10135000121A8FE527B40418853D4F853D5075510D
:101360002C7552327553317B347D2C7F2B121A8FA2
:01137000225A
:1010F70085404C85414D85424E7527027D057C0014
:101107007FA07E0F12157EE54C14B4070050559052
:10111700112475F003A4C58325F0C5837302113923
:1011270002114102114902115102115602115B02CB
:1011370011637544207545308033754435754531E5
:10114700802B75443775453780237544258008758E
:1011570044308003754436754536801175443775BC
:101167004527800975442275452F75462F75460C0E
:10117700E54D75F00A120800F547E54D75F00A12BE
:10118700080085F04875490CE54E75F00A1208000D
:0D119700F54AE54E75F00A12080085F04B90
:0111A4002228
:101505007F807E257D007C001215F6121ACC121AFA
:10151500AF121A6F1219717D07E4FF121B51755135
:101525000075520075533E7554007555017B007A60
:1015350000793F7D057C001219A27BFF7A1079F7AF
:101545007F091214887BFF7A1779127F0412148899
:101555007BFF7A1A794E7F071214887BFF7A1879F8
:10156500B57F031214887BFF7A1279E07F0112148C
:0915750088121B8612193380FB59
:091B48008B88898C88898F8889BB
:100E520052007A868600868600868600868600860E
:090E6200860086860041006F093C
:03002B00021B7A3B
:061B7A0053BCEFD20F3254
:020A2400151F9C
:100A2600200F03020BCDC20F90006EE0B409004008
:100A360003020BAF900A41F8282873020A88020ABB
:100A46005C020A6E020A9A020A5C020A6E020AB185
:100A5600020A5C020A6EAFBDEFFEADBE7C00E42D5D
:100A6600FFEC3E900070803CAFBDEFFEADBE7C005B
:100A7600E42DFFEC3E900072F0A3EFF0751A010230
:100A86000BB5AFBDEFFEADBE7C00E42DFFEC3E9096
:100A960000748010AFBDEFFEADBE7C00E42DFFEC10
:100AA6003E900076F0A3EFF0020BB5AFBDEFFEADC2
:100AB600BE7C00E42DFFEC3E900078F0A3EFF090B2
:100AC6000078E0FEA3E07807CEC313CE13D8F9A8CA
:100AD6001FF6C394065013A81FE675F003A4247AE4
:100AE600F582E43400F583E014F090006FE014F032
:100AF6006003020BB57409F0A81FE4F6A81FE6FF11
:100B0600C394064003020BB5EF75F003A4247AF5EF
:100B160082E43400F583E0C39480502AE6FF75F042
:100B260003A4247BF582E43400F583E0D39480406B
:100B360040EF75F003A4247CF582E43400F5837459
:100B460001F0F51B802BA81FE6FF75F003A4247B9C
:100B5600F582E43400F583E0C394805014EF75F019
:100B660003A4247CF582E43400F5837402F0751B3B
:100B760001A81FE6FF75F003A4247AF582E4340089
:100B8600F583E0FEEF75F003A4247BF582E43400E0
:100B9600F583EEF0E675F003A4247AF582E43400DA
:100BA600F5837486F006020B0290006E74FFF090D7
:100BB600006EE0D39407400374FFF090006EE004EB
:070BC600F0901B4893F5BC01
:030BCD00051F22DF
:021B0700151FA8
:091B0900A81FA61BE4F51BE6FF72
:031B1200051F228A
:021B1500151F9A
:091B1700A81FA61AE4F51AE6FF66
:031B2000051F227C
:101971008F9D75BC88439720D2AD90004574FFF0D0
:10198100A3740AF0A37424F0A374FFF0A3741BF0F2
:10199100A37407F0A374FFF0A3741BF0A37415F0F4
:0119A1002223
:071B6C007B017A0079702271
:1017A800C3EF64809480403BD3EF648094855033CA
:1017B800EFFD3395E0FC90007C75F003ED120A1202
:1017C800EC75F003A42583F583E0FE90007C75F0AA
:1017D80003ED120A12EC75F003A42583F583E4F0F7
:0517E800AF06227F03A3
:0117ED0022D9
:0419FE00151F151F7D
:101A0200121B5AA81FA60608A607A81FE6FE08E68C
:0F1A1200FF4E600BEF24FFFFEE34FFFE121B634D
:051A2100051F051F2256
:101A6F0053B1EF43B210121B8FE4F5D975DA49D297
:101A7F00DE90003F74FFF0A37419F0A374FEF02200
:08157E008E4F8F508C518D52ED
:10158600121B5AEF4E7066AF52AE51121B63C3E583
:1015960050940AE54F9400404BE47B18FAF9F89012
:1015A60018321209F612093DC006C007AE4FAF50F9
:1015B600AB07AA06E4F9F8D007D00612093DAB0737
:1015C600AA06AFF9EFFEADE97C00E42DFFEC3ECFB5
:1015D6002BCF3AAD07FCAF03AE02121AE7D2D843BF
:0F15E600DA018006121B8F53DAFE7F02227F0389
:0115F50022D3
:0C1B3100121B5AEF4E7002FF227F0122AF
:10100E00E4F5809000ACE0FFB40800505F90102231
:10101E00F828287302103A02104002104602104CB3
:10102E0002105202105C021066021070C2A3C2A21D
:10103E008016C2A3C2A2801AC2A3C2A2801EC2A3DD
:10104E00C2A28022C2A3D2A2C2A1C2A08020C2A3E9
:10105E00D2A2C2A1D2A08016C2A3D2A2D2A1C2A0F5
:10106E00800CC2A3D2A2D2A1D2A08002D2A3C3EF7F
:10107E006480948850299000ACE0FF3395E0FE74B4
:10108E00A32FF58274003EF583E0FF3395E0FE74E6
:10109E00362FF58274183EF583E493F580801E900A
:1010AE0000ACE0FFB408133395E0FE74A32FF58275
:1010BE0074003EF583E0F5808003E4F5809000A295
:1010CE00E0FF9000ACE004FEF0D3EF6480F8EE6435
:1010DE0080984014E0D36480948850047408F02201
:0910EE009000A1E09000ACF0229A
:101ACC00E4F5937594FF5395F043960F90002A74A8
:0B1ADC00FFF0A37410F0A3740EF022C2
:091B51009000A1EFF0A3EDF022D9
:101A8F009000A3EFF0A3EDF0A3EBF0A3E54FF0A3CD
:101A9F00E550F0A3E551F0A3E552F0A3E553F02292
:061B80009000ABEFF02223
:100E6B00011E004900AE94940094940094940041A8
:030E7B0000AD1EA9
:020D0000151FBD
:100D020020B2069000AEE014F020B3069000B1E0ED
:100D120014F02097069000B4E014F09000ADE014B7
:100D2200F06003020E20741EF0A81FE4F6A81FE66E
:100D3200FFC3648094834003020E20EF3395E0FEEC
:100D42009000AE75F003EF120A12EE75F003A425BF
:100D520083F583E0C3948050399000AF75F003EFC0
:100D6200120A12EE75F003A42583F583E0D3948072
:100D7200405AE6FF3395E0FE9000B075F003EF12A3
:100D82000A12EE75F003A42583F5837401F0F51EB3
:100D9200803AA81FE6FF3395E0FE9000AF75F0039E
:100DA200EF120A12EE75F003A42583F583E0C394D3
:100DB2008050199000B075F003EF120A12EE75F030
:100DC20003A42583F5837402F0751E01A81FE6FFB4
:100DD200FD3395E0FC9000AE75F003ED120A12ECC3
:100DE20075F003A42583F583E0FE9000AF75F00350
:100DF200ED120A12EC75F003A42583F583EEF0EFF1
:100E02003395E0FE9000AE75F003EF120A12EE7514
:0E0E1200F003A42583F5837494F006020D2FDF
:030E2000051F2289
:021B2300151F8C
:091B2500A81FA61EE4F51EE6FF50
:031B2E00051F226E
:101AAF0090003074FFF0A3741BF0A37423F0900028
:0D1ABF002D74FFF0A3740DF0A37400F0224D
:10187500EF600764016003BF0233EFFD3395E0FCC1
:101885009000B075F003ED120A12EC75F003A42573
:1018950083F583E0FE9000B075F003ED120A12ECBB
:0F18A50075F003A42583F583E4F0AF06227F03DB
:0118B4002211
:100E7E004100000A4100290A41006D0A040E0000DB
:100E8E0000000114004600670000FFFF8FFFC10D38
:100E9E00C105C108C101C10E60240005FF1B92FFF0
:100EAE001B92FF1B92FF1B92FF1B92FF1B92FF1BBD
:100EBE0092FF1B92FF1B92FF1B92FF1B92FF1B9236
:100ECE006036002AFF1B92FF1B92FF1B8CFF1B92AA
:100EDE00FF1B8CFF1B92FF1B8CFF1B92FF1B92FFB5
:100EEE001B92FF1B8CFF1B8CFF1B8CFF1B8CFF1B95
:0A0EFE0092FF1B92FF1B92FF1B9254
:011B92002230
:031B8C007F0022B5
:10176100438E805389F07BE07A28790178009018C4
:10177100321209F61217EEEFF404F58A7BE07A28AB
:10178100790178009018321209F61217EEC3E49F1E
:10179100FFE49EFE74019DFDE49CFC78081209E2C1
:0717A1008F8CD28CD2A9222B
:03000B000216C01A
:0416C000C0E0C0D0F6
:1016C400D5080A75084C300D020514D20DA2037218
:1016D400045036150AE50A7030850C0AD207300A20
:1016E40017E50D6007150D438F01801D538FFEC252
:1016F400B5D51615C20A8011050BE50BD394064027
:0917040008C203E5136002D206DD
:05170D00D0D0D0E03255
:10166D00300E47C20E9018321209F678101209E2A8
:10167D008E1C8F1D900003E0FEA3E0FFE4FCFD7BBC
:10168D0019FAF9F81208B2C006C007AE1CAF1DABAF
:10169D0007AA06E4F9F8D007D0061217EE78031260
:1016AD0009E2900065EEF0A3EFF0900065E0FEA377
:0216BD00E0FF4C
:0116BF002208
:091B5A00900067E0FEA3E0FF2209
:091B6300900067EEF0A3EFF02200
:101AE70090006BEEF0A3EFF0900069ECF0A3EDF03F
:011AF70022CC
:031B8F00C2B422BB
:03003B000211A50A
:1011A500C0E0C083C082C0D075D000C004C005C0F7
:0311B50006C0076A
:1011B80030DF04C2DF807D30DA04C2DA807630D9CD
:1011C8003DC2D9AFFBEFFEADEB7C00E42DFFEC3E5A
:1011D80020000E900001F0A3EFF075DB11D2008023
:1011E80053FE900001E0FCA3E0FDC3EF9DFFEE9CE1
:1011F800A3F0A3EFF075DB00C200D20E803630D822
:1012080033C2D8900067E07002A3E06022B2B490C5
:101218000069E0FEA3E0F5EAEEF5FAA3E0FEA3E03C
:10122800FF90006AE02FF0900069E03EF08005C270
:04123800B453DAFED3
:10123C00D007D006D005D004D0D0D082D083D0E057
:01124C00326F
:061B8600121761D2AF222C
:1013FD003004047F0180027F00200A047E018002F8
:10140D007E00EE5F6074E515C395095068300236B5
:10141D00750D01E515131313541FAB17AA18A91950
:10142D00F582758300120822FFE515540704FEEFBF
:10143D00A806088002C333D8FC30D7057516038083
:10144D002F751601802AAB17AA18A91975F002E598
:10145D0015A4F58285F083120822F50DE51575F0BA
:10146D0002A429F9EA35F0FA900001120822F516C6
:0A147D000515D20A22C204438F10A5
:011487002242
:100F2100900000E014F0701F740AF0D205900029BF
:100F3100E014F07012740AF0D20890006DE014F021
:100F41007005740AF0D20190002AA3E0FAA3E0F937
:100F5100120A1E90002DA3E0FAA3E0F9120A1E90D6
:100F61000039A3E0FAA3E0F9120A1E900045A3E0BC
:100F7100FAA3E0F9120A1E900054A3E0FAA3E0F9E3
:100F8100120A1E90005DA3E0FAA3E0F9120A1E9076
:100F9100004BA3E0FAA3E0F9120A1EEF600C9000E7
:100FA1001DA3E0FAA3E0F9120A1E90004EA3E0FA95
:100FB100A3E0F9120A1EEF600E900020A3E0FAA34D
:100FC100E0F9120A1ED20BE512D394004016D51295
:100FD1003030090C900023A3E0FAA3E0F9120A1EB5
:100FE100D20C801D900051A3E0FAA3E0F9120A1E71
:100FF100EF600E900023A3E0FAA3E0F9120A1ED2DB
:0D1001000C900005A3E0FAA3E0F9020A1E1E
:10124D0090003FA3E0FAA3E0F9120A1E900042A31A
:10125D00E0FAA3E0F9120A1E900033A3E0FAA3E02E
:10126D00F9120A1E900008A3E0FAA3E0F9120A1E73
:10127D00900030A3E0FAA3E0F9120A1EEF600C9083
:10128D000011A3E0FAA3E0F9120A1E900036A3E0C4
:10129D00FAA3E0F9120A1EEF600C900017A3E0FA12
:1012AD00A3E0F9120A1E900048A3E0FAA3E0F91298
:1012BD000A1EEF600C90001AA3E0FAA3E0F9120ADF
:1012CD001E30060EC206900026A3E0FAA3E0F91226
:0312DD000A1E22C4
:1018F40090000BA3E0FAA3E0F9120A1E90003CA3A7
:10190400E0FAA3E0F9120A1EEF600C900014A3E0C1
:10191400FAA3E0F9120A1E900057A3E0FAA3E0F933
:0F192400120A1E90005AA3E0FAA3E0F9020A1E6D
:1019D300AF11AE10AD0FAC0E900060120A0690006E
:1019E30064E514F0E4F511F510F50FF50EF5149018
:0B19F300000EA3E0FAA3E0F9020A1EB8
:10193300300705C2071213FD300D05C20D120F212A
:10194300300505C20512124D300805C2081218F4FD
:10195300300105C2011219D3E5112401F511E43553
:0E19630010F510E4350FF50FE4350EF50E22E9
:101488008B4C8A4D894EEFB40C00507090149BF829
:101498002828730214BF0214C40214C90214CE020D
:1014A80014D30214D80214DD0214E20214E7021461
:1014B800EC0214F10214F6900005803590000880C3
:1014C8003090000B802B90000E8026900011802118
:1014D800900017801C900014801790001A801290BA
:1014E800001D800D9000208008900023800390004C
:0D14F80026E54CF0A3E54DF0A3E54EF022F3
:071B73007B017A007960227A
:100F080055008C00000000000000000000000000F8
:080F18000000010000000000D0
:03002300020BD0FD
:100BD000C0E0C0F0C083C082C0D075D000C000C0EB
:100BE00001C002C003C004C005C006C00730993B65
:100BF000C299900091E0FEA3E0FFC3900090E09FB7
:100C000090008FE09E501F90008CE0FBA3E0FAA3C1
:100C1000E0F9A3E475F00112087185F082F5831202
:100C20000822F5998005900093E4F0209803020CC7
:100C3000E5C298300B09C20B900099E4F0A3F09044
:100C40000097E0FEA3E0FFA3E0FCA3E0FDC39FEC60
:100C50009E5077900094E0FBA3E0FAA3E0F98D8228
:100C60008C83E59912084F90009FE0FEA3E0FFC33C
:100C7000ED9FEC9E5046900097E0FCA3E0FDEF9DB9
:100C8000EE9C503890009CE0FBA3E0FAA3E0F990C2
:100C90000099E0FEA3E0FFF5828E83120822FD900A
:100CA0000094E0FBA3E0FAA3E0F98F828E831208A0
:100CB000226D600890009974FFF0A3F090009AE014
:100CC00004F07006900099E004F0900097E0FEA315
:100CD000E0FFC390009AE09F900099E09E4006904C
:100CE000009B7401F0D007D006D005D004D003D00B
:100CF00002D001D000D0D0D082D083D0F0D0E0326A
:021AF800151FB8
:0A1AFA0090009BE0A81FF6FFE4F047
:031B0400051F2298
:1015F6008F4F8E4E8D4D8C4C759850438E40538E2A
:10160600FE53890FE47B04FAF9F89018321209F6B2
:1016160012093DAB4FAA4EA94DA84C12093DEFF455
:1016260004F58BE47B04FAF9F89018321209F612E5
:10163600093DAB4FAA4EA94DA84C12093DC3E49FE4
:10164600FFE49EFE74019DFDE49CFC78081209CF20
:101656008F8DC2ABD28ED2AC90004E74FFF0A374C5
:071666001AF0A374F8F02252
:1019A200900094EBF0A3EAF0A3E9F0A3ECF0A3ED2E
:1019B200F090009FE554F0A3E555F090009CE551AE
:1019C200F0A3E552F0A3E553F0D20BE490009BF0B4
:0119D20022F2
:101A2600900093E0701F90008CEBF0A3EAF0A3E91E
:101A3600F0E4A3F0A3F0A3ECF0A3EDF0A37401F09F
:081A4600D2997F02227F0322E6
:0B1B3D00900093E07002FF227F012265
:0300000002137177
:0C137100787FE4F6D8FD7581550213B8B2
:10080000C2D530F707B2D563F0FF05F030E70CB280
:10081000D5F4048463F0FF05F080018430D502F440
:020820000422B0
:10082200BB010CE58229F582E5833AF583E022508B
:1008320006E92582F8E622BBFE06E92582F8E222D5
:0D084200E58229F582E5833AF583E49322EF
:10084F00F8BB010DE58229F582E5833AF583E8F0DF
:10085F00225006E92582C8F622BBFE05E92582C88B
:02086F00F22273
:10087100A3F8E0C5F025F0F0E5821582700215833A
:06088100E0C838F0E82297
:10088700BB010A89828A83E0F5F0A3E0225006873C
:10089700F009E71922BBFE07E3F5F009E3192289FE
:0B08A700828A83E493F5F07401932231
:1008B200E88FF0A4CC8BF0A42CFCE98EF0A42CFCE5
:1008C2008AF0EDA42CFCEA8EF0A4CDA8F08BF0A463
:1008D2002DCC3825F0FDE98FF0A42CCD35F0FCEBC2
:1008E2008EF0A4FEA9F0EB8FF0A4CFC5F02ECD3987
:0F08F200FEE43CFCEAA42DCE35F0FDE43CFC22F4
:1009010075F008758200EF2FFFEE33FECD33CDCCAD
:1009110033CCC58233C5829BED9AEC99E582984030
:100921000CF582EE9BFEED9AFDEC99FC0FD5F0D60D
:10093100E4CEFBE4CDFAE4CCF9A88222B800C1B937
:100941000059BA002DEC8BF084CFCECDFCE5F0CB75
:10095100F97818EF2FFFEE33FEED33FDEC33FCEBAE
:1009610033FB10D703994004EB99FB0FD8E5E4F969
:10097100FA227818EF2FFFEE33FEED33FDEC33FC56
:10098100C933C910D7059BE99A4007EC9BFCE99A4A
:10099100F90FD8E0E4C9FAE4CCFB2275F010EF2F8F
:1009A100FFEE33FEED33FDCC33CCC833C810D7078F
:1009B1009BEC9AE899400AED9BFDEC9AFCE899F8CA
:0E09C1000FD5F0DAE4CDFBE4CCFAE4C8F9225D
:1017EE00C2D5E830E70FB2D5E4C39BFBE49AFAE426
:1017FE0099F9E498F8EC30E717B2D51218241209CB
:10180E003DE4C39BFBE49AFAE499F9E498F880036B
:10181E0012093D30D50DE4C39FFFE49EFEE49DFD0D
:04182E00E49CFC2218
:1009CF00E8600FECC313FCED13FDEE13FEEF13FF06
:0309DF00D8F1222A
:1009E200E86010ECA2E713FCED13FDEE13FEEF132B
:0409F200FFD8F02218
:1009F600E493FC740193FD740293FE740393FF2247
:0C0A0600ECF0A3EDF0A3EEF0A3EFF02263
:0C0A1200A42582F582E5F03583F58322EF
:060A1E008A838982E47363
:10137D00021505E493A3F8E493A34003F68001F26C
:10138D0008DFF48029E493A3F85407240CC8C33371
:10139D00C4540F4420C8834004F456800146F6DF40
:1013AD00E4800B0102040810204080900E23E47E9F
:1013BD00019360BCA3FF543F30E509541FFEE49335
:1013CD00A360010ECF54C025E060A840B8E493A3FC
:1013DD00FAE493A3F8E493A3C8C582C8CAC583CA27
:1013ED00F0A3C8C582C8CAC583CADFE9DEE780BEDF
:010F200000D0
:00000001FF
